{
  "_format": "hh-sol-artifact-1",
  "contractName": "NFTAuction",
  "sourceName": "contracts/auctionContract.sol",
  "abi": [
    {
      "inputs": [
        {
          "internalType": "address",
          "name": "_paymentTokenAddress",
          "type": "address"
        },
        {
          "internalType": "contract IAuANFT",
          "name": "_NftContractAddress",
          "type": "address"
        }
      ],
      "stateMutability": "nonpayable",
      "type": "constructor"
    },
    {
      "anonymous": false,
      "inputs": [
        {
          "indexed": true,
          "internalType": "uint256",
          "name": "tokenId",
          "type": "uint256"
        },
        {
          "indexed": true,
          "internalType": "address",
          "name": "winner",
          "type": "address"
        },
        {
          "indexed": false,
          "internalType": "uint256",
          "name": "winningBid",
          "type": "uint256"
        }
      ],
      "name": "AuctionEnded",
      "type": "event"
    },
    {
      "anonymous": false,
      "inputs": [
        {
          "indexed": true,
          "internalType": "uint256",
          "name": "tokenId",
          "type": "uint256"
        },
        {
          "indexed": true,
          "internalType": "address",
          "name": "bidder",
          "type": "address"
        },
        {
          "indexed": false,
          "internalType": "uint256",
          "name": "bidAmount",
          "type": "uint256"
        }
      ],
      "name": "BidPlaced",
      "type": "event"
    },
    {
      "anonymous": false,
      "inputs": [
        {
          "indexed": true,
          "internalType": "address",
          "name": "token",
          "type": "address"
        },
        {
          "indexed": true,
          "internalType": "address",
          "name": "owner",
          "type": "address"
        },
        {
          "indexed": false,
          "internalType": "uint256",
          "name": "amount",
          "type": "uint256"
        }
      ],
      "name": "EmergencyTokenWithdrawal",
      "type": "event"
    },
    {
      "anonymous": false,
      "inputs": [
        {
          "indexed": true,
          "internalType": "address",
          "name": "owner",
          "type": "address"
        },
        {
          "indexed": false,
          "internalType": "uint256",
          "name": "amount",
          "type": "uint256"
        }
      ],
      "name": "EmergencyWithdrawal",
      "type": "event"
    },
    {
      "anonymous": false,
      "inputs": [
        {
          "indexed": false,
          "internalType": "uint256",
          "name": "newListingFee",
          "type": "uint256"
        }
      ],
      "name": "ListingFeeUpdated",
      "type": "event"
    },
    {
      "anonymous": false,
      "inputs": [
        {
          "indexed": true,
          "internalType": "uint256",
          "name": "tokenId",
          "type": "uint256"
        },
        {
          "indexed": true,
          "internalType": "address",
          "name": "seller",
          "type": "address"
        },
        {
          "indexed": false,
          "internalType": "uint256",
          "name": "listingFee",
          "type": "uint256"
        }
      ],
      "name": "NFTListed",
      "type": "event"
    },
    {
      "anonymous": false,
      "inputs": [
        {
          "indexed": true,
          "internalType": "address",
          "name": "previousOwner",
          "type": "address"
        },
        {
          "indexed": true,
          "internalType": "address",
          "name": "newOwner",
          "type": "address"
        }
      ],
      "name": "OwnershipTransferred",
      "type": "event"
    },
    {
      "inputs": [],
      "name": "NftContractAddress",
      "outputs": [
        {
          "internalType": "contract IAuANFT",
          "name": "",
          "type": "address"
        }
      ],
      "stateMutability": "view",
      "type": "function"
    },
    {
      "inputs": [
        {
          "internalType": "uint256",
          "name": "",
          "type": "uint256"
        }
      ],
      "name": "auctions",
      "outputs": [
        {
          "internalType": "address",
          "name": "owner",
          "type": "address"
        },
        {
          "internalType": "contract IAuANFT",
          "name": "nftContract",
          "type": "address"
        },
        {
          "internalType": "uint256",
          "name": "tokenId",
          "type": "uint256"
        },
        {
          "internalType": "uint256",
          "name": "startingPrice",
          "type": "uint256"
        },
        {
          "internalType": "uint256",
          "name": "startTime",
          "type": "uint256"
        },
        {
          "internalType": "uint256",
          "name": "endTime",
          "type": "uint256"
        },
        {
          "internalType": "address",
          "name": "highestBidder",
          "type": "address"
        },
        {
          "internalType": "uint256",
          "name": "highestBid",
          "type": "uint256"
        },
        {
          "internalType": "bool",
          "name": "ended",
          "type": "bool"
        }
      ],
      "stateMutability": "view",
      "type": "function"
    },
    {
      "inputs": [
        {
          "internalType": "address",
          "name": "_token",
          "type": "address"
        }
      ],
      "name": "emergencyWithdrawERC20",
      "outputs": [],
      "stateMutability": "nonpayable",
      "type": "function"
    },
    {
      "inputs": [],
      "name": "emergencyWithdrawETH",
      "outputs": [],
      "stateMutability": "nonpayable",
      "type": "function"
    },
    {
      "inputs": [
        {
          "internalType": "uint256",
          "name": "_tokenId",
          "type": "uint256"
        }
      ],
      "name": "endAuction",
      "outputs": [],
      "stateMutability": "nonpayable",
      "type": "function"
    },
    {
      "inputs": [],
      "name": "getListingFee",
      "outputs": [
        {
          "internalType": "uint256",
          "name": "",
          "type": "uint256"
        }
      ],
      "stateMutability": "view",
      "type": "function"
    },
    {
      "inputs": [
        {
          "internalType": "uint256",
          "name": "_tokenId",
          "type": "uint256"
        }
      ],
      "name": "getNFTMetadata",
      "outputs": [
        {
          "internalType": "string",
          "name": "",
          "type": "string"
        }
      ],
      "stateMutability": "view",
      "type": "function"
    },
    {
      "inputs": [
        {
          "internalType": "uint256",
          "name": "_startingPrice",
          "type": "uint256"
        },
        {
          "internalType": "uint256",
          "name": "_startTime",
          "type": "uint256"
        },
        {
          "internalType": "uint256",
          "name": "_duration",
          "type": "uint256"
        }
      ],
      "name": "listNFTForAuction",
      "outputs": [],
      "stateMutability": "nonpayable",
      "type": "function"
    },
    {
      "inputs": [],
      "name": "mintNFT",
      "outputs": [
        {
          "internalType": "uint256",
          "name": "",
          "type": "uint256"
        }
      ],
      "stateMutability": "nonpayable",
      "type": "function"
    },
    {
      "inputs": [],
      "name": "owner",
      "outputs": [
        {
          "internalType": "address",
          "name": "",
          "type": "address"
        }
      ],
      "stateMutability": "view",
      "type": "function"
    },
    {
      "inputs": [],
      "name": "paymentTokenAddress",
      "outputs": [
        {
          "internalType": "address",
          "name": "",
          "type": "address"
        }
      ],
      "stateMutability": "view",
      "type": "function"
    },
    {
      "inputs": [
        {
          "internalType": "uint256",
          "name": "_tokenId",
          "type": "uint256"
        },
        {
          "internalType": "uint256",
          "name": "_bidAmount",
          "type": "uint256"
        }
      ],
      "name": "placeBid",
      "outputs": [],
      "stateMutability": "nonpayable",
      "type": "function"
    },
    {
      "inputs": [],
      "name": "renounceOwnership",
      "outputs": [],
      "stateMutability": "nonpayable",
      "type": "function"
    },
    {
      "inputs": [
        {
          "internalType": "uint256",
          "name": "_listingFee",
          "type": "uint256"
        }
      ],
      "name": "setListingFee",
      "outputs": [],
      "stateMutability": "nonpayable",
      "type": "function"
    },
    {
      "inputs": [
        {
          "internalType": "address",
          "name": "newOwner",
          "type": "address"
        }
      ],
      "name": "transferOwnership",
      "outputs": [],
      "stateMutability": "nonpayable",
      "type": "function"
    }
  ],
  "bytecode": "0x60806040523480156200001157600080fd5b50604051620025c0380380620025c083398181016040528101906200003791906200025c565b620000576200004b620000e160201b60201c565b620000e960201b60201c565b81600160006101000a81548173ffffffffffffffffffffffffffffffffffffffff021916908373ffffffffffffffffffffffffffffffffffffffff16021790555080600260006101000a81548173ffffffffffffffffffffffffffffffffffffffff021916908373ffffffffffffffffffffffffffffffffffffffff1602179055505050620002a3565b600033905090565b60008060009054906101000a900473ffffffffffffffffffffffffffffffffffffffff169050816000806101000a81548173ffffffffffffffffffffffffffffffffffffffff021916908373ffffffffffffffffffffffffffffffffffffffff1602179055508173ffffffffffffffffffffffffffffffffffffffff168173ffffffffffffffffffffffffffffffffffffffff167f8be0079c531659141344cd1fd0a4f28419497f9722a3daafe3b4186f6b6457e060405160405180910390a35050565b600080fd5b600073ffffffffffffffffffffffffffffffffffffffff82169050919050565b6000620001df82620001b2565b9050919050565b620001f181620001d2565b8114620001fd57600080fd5b50565b6000815190506200021181620001e6565b92915050565b60006200022482620001d2565b9050919050565b620002368162000217565b81146200024257600080fd5b50565b60008151905062000256816200022b565b92915050565b60008060408385031215620002765762000275620001ad565b5b6000620002868582860162000200565b9250506020620002998582860162000245565b9150509250929050565b61230d80620002b36000396000f3fe608060405234801561001057600080fd5b50600436106100f55760003560e01c8063715018a611610097578063afb18fe711610066578063afb18fe714610240578063b8fe6abe1461025e578063b9a2de3a1461027c578063f2fde38b14610298576100f5565b8063715018a6146101f057806384536017146101fa5780638da5cb5b146102045780639f91467b14610222576100f5565b806344f9fb27116100d357806344f9fb2714610150578063571a26a01461016c57806357c90de5146101a45780636be9a6f1146101c0576100f5565b8063131dbd09146100fa57806314f710fe1461011657806340c442de14610134575b600080fd5b610114600480360381019061010f9190611687565b6102b4565b005b61011e6102fd565b60405161012b91906116c3565b60405180910390f35b61014e6004803603810190610149919061173c565b6103ad565b005b61016a60048036038101906101659190611769565b610567565b005b61018660048036038101906101819190611687565b610b80565b60405161019b99989796959493929190611845565b60405180910390f35b6101be60048036038101906101b991906118d2565b610c3b565b005b6101da60048036038101906101d59190611687565b610f4f565b6040516101e791906119a2565b60405180910390f35b6101f8611109565b005b61020261111d565b005b61020c6111ca565b60405161021991906119c4565b60405180910390f35b61022a6111f3565b60405161023791906119df565b60405180910390f35b610248611219565b60405161025591906119c4565b60405180910390f35b61026661123f565b60405161027391906116c3565b60405180910390f35b61029660048036038101906102919190611687565b611249565b005b6102b260048036038101906102ad919061173c565b611470565b005b6102bc6114f3565b806004819055507f5fb4654f1efe30c6141eaa6855ffcb27e0b361d899b05e21b1a4d0b3e71e14db816040516102f291906116c3565b60405180910390a150565b6000803390506000600260009054906101000a900473ffffffffffffffffffffffffffffffffffffffff1673ffffffffffffffffffffffffffffffffffffffff16636a627842836040518263ffffffff1660e01b815260040161036091906119c4565b6020604051808303816000875af115801561037f573d6000803e3d6000fd5b505050506040513d601f19601f820116820180604052508101906103a39190611a0f565b9050809250505090565b6103b56114f3565b60008173ffffffffffffffffffffffffffffffffffffffff166370a08231306040518263ffffffff1660e01b81526004016103f091906119c4565b602060405180830381865afa15801561040d573d6000803e3d6000fd5b505050506040513d601f19601f820116820180604052508101906104319190611a0f565b90508173ffffffffffffffffffffffffffffffffffffffff1663a9059cbb6104576111ca565b836040518363ffffffff1660e01b8152600401610475929190611a3c565b6020604051808303816000875af1158015610494573d6000803e3d6000fd5b505050506040513d601f19601f820116820180604052508101906104b89190611a91565b6104f7576040517f08c379a00000000000000000000000000000000000000000000000000000000081526004016104ee90611b0a565b60405180910390fd5b6104ff6111ca565b73ffffffffffffffffffffffffffffffffffffffff168273ffffffffffffffffffffffffffffffffffffffff167fa4e7b83d59f83358c69c32a951cf5f617e749b38fdb1e2ff13524b83ffd42c998360405161055b91906116c3565b60405180910390a35050565b60006105716102fd565b9050600454600160009054906101000a900473ffffffffffffffffffffffffffffffffffffffff1673ffffffffffffffffffffffffffffffffffffffff166370a08231336040518263ffffffff1660e01b81526004016105d191906119c4565b602060405180830381865afa1580156105ee573d6000803e3d6000fd5b505050506040513d601f19601f820116820180604052508101906106129190611a0f565b11610652576040517f08c379a000000000000000000000000000000000000000000000000000000000815260040161064990611b9c565b60405180910390fd5b3373ffffffffffffffffffffffffffffffffffffffff16600260009054906101000a900473ffffffffffffffffffffffffffffffffffffffff1673ffffffffffffffffffffffffffffffffffffffff16636352211e836040518263ffffffff1660e01b81526004016106c491906116c3565b602060405180830381865afa1580156106e1573d6000803e3d6000fd5b505050506040513d601f19601f820116820180604052508101906107059190611bd1565b73ffffffffffffffffffffffffffffffffffffffff161461075b576040517f08c379a000000000000000000000000000000000000000000000000000000000815260040161075290611c4a565b60405180910390fd5b6003600082815260200190815260200160002060080160009054906101000a900460ff16156107bf576040517f08c379a00000000000000000000000000000000000000000000000000000000081526004016107b690611cdc565b60405180910390fd5b428311610801576040517f08c379a00000000000000000000000000000000000000000000000000000000081526004016107f890611d6e565b60405180910390fd5b600160009054906101000a900473ffffffffffffffffffffffffffffffffffffffff1673ffffffffffffffffffffffffffffffffffffffff166323b872dd33306004546040518463ffffffff1660e01b815260040161086293929190611d8e565b6020604051808303816000875af1158015610881573d6000803e3d6000fd5b505050506040513d601f19601f820116820180604052508101906108a59190611a91565b506040518061012001604052803373ffffffffffffffffffffffffffffffffffffffff168152602001600260009054906101000a900473ffffffffffffffffffffffffffffffffffffffff1673ffffffffffffffffffffffffffffffffffffffff168152602001828152602001858152602001848152602001838561092a9190611df4565b8152602001600073ffffffffffffffffffffffffffffffffffffffff16815260200160008152602001600015158152506003600083815260200190815260200160002060008201518160000160006101000a81548173ffffffffffffffffffffffffffffffffffffffff021916908373ffffffffffffffffffffffffffffffffffffffff16021790555060208201518160010160006101000a81548173ffffffffffffffffffffffffffffffffffffffff021916908373ffffffffffffffffffffffffffffffffffffffff16021790555060408201518160020155606082015181600301556080820151816004015560a0820151816005015560c08201518160060160006101000a81548173ffffffffffffffffffffffffffffffffffffffff021916908373ffffffffffffffffffffffffffffffffffffffff16021790555060e082015181600701556101008201518160080160006101000a81548160ff021916908315150217905550905050600260009054906101000a900473ffffffffffffffffffffffffffffffffffffffff1673ffffffffffffffffffffffffffffffffffffffff166323b872dd3330846040518463ffffffff1660e01b8152600401610af793929190611d8e565b600060405180830381600087803b158015610b1157600080fd5b505af1158015610b25573d6000803e3d6000fd5b505050503373ffffffffffffffffffffffffffffffffffffffff16817f5f9c03de076f5063cd3ebcfe8ef7aa8af378e4b35a83c77ba9777e97083879a2600454604051610b7291906116c3565b60405180910390a350505050565b60036020528060005260406000206000915090508060000160009054906101000a900473ffffffffffffffffffffffffffffffffffffffff16908060010160009054906101000a900473ffffffffffffffffffffffffffffffffffffffff16908060020154908060030154908060040154908060050154908060060160009054906101000a900473ffffffffffffffffffffffffffffffffffffffff16908060070154908060080160009054906101000a900460ff16905089565b60006003600084815260200190815260200160002090508060080160009054906101000a900460ff1615610ca4576040517f08c379a0000000000000000000000000000000000000000000000000000000008152600401610c9b90611e74565b60405180910390fd5b80600701548211610cea576040517f08c379a0000000000000000000000000000000000000000000000000000000008152600401610ce190611f06565b60405180910390fd5b600160009054906101000a900473ffffffffffffffffffffffffffffffffffffffff1673ffffffffffffffffffffffffffffffffffffffff166323b872dd3330856040518463ffffffff1660e01b8152600401610d4993929190611d8e565b6020604051808303816000875af1158015610d68573d6000803e3d6000fd5b505050506040513d601f19601f82011682018060405250810190610d8c9190611a91565b50600073ffffffffffffffffffffffffffffffffffffffff168160060160009054906101000a900473ffffffffffffffffffffffffffffffffffffffff1673ffffffffffffffffffffffffffffffffffffffff1614610eaf57600160009054906101000a900473ffffffffffffffffffffffffffffffffffffffff1673ffffffffffffffffffffffffffffffffffffffff1663a9059cbb8260060160009054906101000a900473ffffffffffffffffffffffffffffffffffffffff1683600701546040518363ffffffff1660e01b8152600401610e6a929190611a3c565b6020604051808303816000875af1158015610e89573d6000803e3d6000fd5b505050506040513d601f19601f82011682018060405250810190610ead9190611a91565b505b338160060160006101000a81548173ffffffffffffffffffffffffffffffffffffffff021916908373ffffffffffffffffffffffffffffffffffffffff1602179055508181600701819055503373ffffffffffffffffffffffffffffffffffffffff16837f0e54eff26401bf69b81b26f60bd85ef47f5d85275c1d268d84f68d6897431c4784604051610f4291906116c3565b60405180910390a3505050565b6060600073ffffffffffffffffffffffffffffffffffffffff16600260009054906101000a900473ffffffffffffffffffffffffffffffffffffffff1673ffffffffffffffffffffffffffffffffffffffff16636352211e846040518263ffffffff1660e01b8152600401610fc491906116c3565b602060405180830381865afa158015610fe1573d6000803e3d6000fd5b505050506040513d601f19601f820116820180604052508101906110059190611bd1565b73ffffffffffffffffffffffffffffffffffffffff160361105b576040517f08c379a000000000000000000000000000000000000000000000000000000000815260040161105290611f72565b60405180910390fd5b6000600260009054906101000a900473ffffffffffffffffffffffffffffffffffffffff1673ffffffffffffffffffffffffffffffffffffffff1663c87b56dd846040518263ffffffff1660e01b81526004016110b891906116c3565b600060405180830381865afa1580156110d5573d6000803e3d6000fd5b505050506040513d6000823e3d601f19601f820116820180604052508101906110fe91906120b8565b905080915050919050565b6111116114f3565b61111b6000611571565b565b6111256114f3565b61112d6111ca565b73ffffffffffffffffffffffffffffffffffffffff166108fc479081150290604051600060405180830381858888f19350505050158015611172573d6000803e3d6000fd5b5061117b6111ca565b73ffffffffffffffffffffffffffffffffffffffff167f23d6711a1d031134a36921253c75aa59e967d38e369ac625992824315e204f20476040516111c091906116c3565b60405180910390a2565b60008060009054906101000a900473ffffffffffffffffffffffffffffffffffffffff16905090565b600260009054906101000a900473ffffffffffffffffffffffffffffffffffffffff1681565b600160009054906101000a900473ffffffffffffffffffffffffffffffffffffffff1681565b6000600454905090565b60006003600083815260200190815260200160002090508060080160009054906101000a900460ff16156112b2576040517f08c379a00000000000000000000000000000000000000000000000000000000081526004016112a99061214d565b60405180910390fd5b80600501544210156112f9576040517f08c379a00000000000000000000000000000000000000000000000000000000081526004016112f0906121b9565b60405180910390fd5b60018160080160006101000a81548160ff0219169083151502179055508060010160009054906101000a900473ffffffffffffffffffffffffffffffffffffffff1673ffffffffffffffffffffffffffffffffffffffff166323b872dd8260000160009054906101000a900473ffffffffffffffffffffffffffffffffffffffff168360060160009054906101000a900473ffffffffffffffffffffffffffffffffffffffff1684600201546040518463ffffffff1660e01b81526004016113c393929190611d8e565b600060405180830381600087803b1580156113dd57600080fd5b505af11580156113f1573d6000803e3d6000fd5b505050508060060160009054906101000a900473ffffffffffffffffffffffffffffffffffffffff1673ffffffffffffffffffffffffffffffffffffffff16827fd2aa34a4fdbbc6dff6a3e56f46e0f3ae2a31d7785ff3487aa5c95c642acea501836007015460405161146491906116c3565b60405180910390a35050565b6114786114f3565b600073ffffffffffffffffffffffffffffffffffffffff168173ffffffffffffffffffffffffffffffffffffffff16036114e7576040517f08c379a00000000000000000000000000000000000000000000000000000000081526004016114de9061224b565b60405180910390fd5b6114f081611571565b50565b6114fb611635565b73ffffffffffffffffffffffffffffffffffffffff166115196111ca565b73ffffffffffffffffffffffffffffffffffffffff161461156f576040517f08c379a0000000000000000000000000000000000000000000000000000000008152600401611566906122b7565b60405180910390fd5b565b60008060009054906101000a900473ffffffffffffffffffffffffffffffffffffffff169050816000806101000a81548173ffffffffffffffffffffffffffffffffffffffff021916908373ffffffffffffffffffffffffffffffffffffffff1602179055508173ffffffffffffffffffffffffffffffffffffffff168173ffffffffffffffffffffffffffffffffffffffff167f8be0079c531659141344cd1fd0a4f28419497f9722a3daafe3b4186f6b6457e060405160405180910390a35050565b600033905090565b6000604051905090565b600080fd5b600080fd5b6000819050919050565b61166481611651565b811461166f57600080fd5b50565b6000813590506116818161165b565b92915050565b60006020828403121561169d5761169c611647565b5b60006116ab84828501611672565b91505092915050565b6116bd81611651565b82525050565b60006020820190506116d860008301846116b4565b92915050565b600073ffffffffffffffffffffffffffffffffffffffff82169050919050565b6000611709826116de565b9050919050565b611719816116fe565b811461172457600080fd5b50565b60008135905061173681611710565b92915050565b60006020828403121561175257611751611647565b5b600061176084828501611727565b91505092915050565b60008060006060848603121561178257611781611647565b5b600061179086828701611672565b93505060206117a186828701611672565b92505060406117b286828701611672565b9150509250925092565b6117c5816116fe565b82525050565b6000819050919050565b60006117f06117eb6117e6846116de565b6117cb565b6116de565b9050919050565b6000611802826117d5565b9050919050565b6000611814826117f7565b9050919050565b61182481611809565b82525050565b60008115159050919050565b61183f8161182a565b82525050565b60006101208201905061185b600083018c6117bc565b611868602083018b61181b565b611875604083018a6116b4565b61188260608301896116b4565b61188f60808301886116b4565b61189c60a08301876116b4565b6118a960c08301866117bc565b6118b660e08301856116b4565b6118c4610100830184611836565b9a9950505050505050505050565b600080604083850312156118e9576118e8611647565b5b60006118f785828601611672565b925050602061190885828601611672565b9150509250929050565b600081519050919050565b600082825260208201905092915050565b60005b8381101561194c578082015181840152602081019050611931565b60008484015250505050565b6000601f19601f8301169050919050565b600061197482611912565b61197e818561191d565b935061198e81856020860161192e565b61199781611958565b840191505092915050565b600060208201905081810360008301526119bc8184611969565b905092915050565b60006020820190506119d960008301846117bc565b92915050565b60006020820190506119f4600083018461181b565b92915050565b600081519050611a098161165b565b92915050565b600060208284031215611a2557611a24611647565b5b6000611a33848285016119fa565b91505092915050565b6000604082019050611a5160008301856117bc565b611a5e60208301846116b4565b9392505050565b611a6e8161182a565b8114611a7957600080fd5b50565b600081519050611a8b81611a65565b92915050565b600060208284031215611aa757611aa6611647565b5b6000611ab584828501611a7c565b91505092915050565b7f546f6b656e207472616e73666572206661696c65640000000000000000000000600082015250565b6000611af460158361191d565b9150611aff82611abe565b602082019050919050565b60006020820190508181036000830152611b2381611ae7565b9050919050565b7f596f7520646f6e2774206861766520656e6f7567682041754120746f20636f7660008201527f657220746865206c697374696e67204665650000000000000000000000000000602082015250565b6000611b8660328361191d565b9150611b9182611b2a565b604082019050919050565b60006020820190508181036000830152611bb581611b79565b9050919050565b600081519050611bcb81611710565b92915050565b600060208284031215611be757611be6611647565b5b6000611bf584828501611bbc565b91505092915050565b7f546865204e465420646f65736e27742062656c6f6e6720746f20796f75000000600082015250565b6000611c34601d8361191d565b9150611c3f82611bfe565b602082019050919050565b60006020820190508181036000830152611c6381611c27565b9050919050565b7f4e465420697320616c726561647920696e20616e20616374697665206175637460008201527f696f6e0000000000000000000000000000000000000000000000000000000000602082015250565b6000611cc660238361191d565b9150611cd182611c6a565b604082019050919050565b60006020820190508181036000830152611cf581611cb9565b9050919050565b7f546865207374617274696e672074696d652073686f756c6420626520696e207460008201527f6865206675747572650000000000000000000000000000000000000000000000602082015250565b6000611d5860298361191d565b9150611d6382611cfc565b604082019050919050565b60006020820190508181036000830152611d8781611d4b565b9050919050565b6000606082019050611da360008301866117bc565b611db060208301856117bc565b611dbd60408301846116b4565b949350505050565b7f4e487b7100000000000000000000000000000000000000000000000000000000600052601160045260246000fd5b6000611dff82611651565b9150611e0a83611651565b9250828201905080821115611e2257611e21611dc5565b5b92915050565b7f41756374696f6e2068617320656e646564000000000000000000000000000000600082015250565b6000611e5e60118361191d565b9150611e6982611e28565b602082019050919050565b60006020820190508181036000830152611e8d81611e51565b9050919050565b7f42696420616d6f756e74206d7573742062652067726561746572207468616e2060008201527f7468652063757272656e74206869676865737420626964000000000000000000602082015250565b6000611ef060378361191d565b9150611efb82611e94565b604082019050919050565b60006020820190508181036000830152611f1f81611ee3565b9050919050565b7f4e465420646f6573206e6f742065786973740000000000000000000000000000600082015250565b6000611f5c60128361191d565b9150611f6782611f26565b602082019050919050565b60006020820190508181036000830152611f8b81611f4f565b9050919050565b600080fd5b600080fd5b7f4e487b7100000000000000000000000000000000000000000000000000000000600052604160045260246000fd5b611fd482611958565b810181811067ffffffffffffffff82111715611ff357611ff2611f9c565b5b80604052505050565b600061200661163d565b90506120128282611fcb565b919050565b600067ffffffffffffffff82111561203257612031611f9c565b5b61203b82611958565b9050602081019050919050565b600061205b61205684612017565b611ffc565b90508281526020810184848401111561207757612076611f97565b5b61208284828561192e565b509392505050565b600082601f83011261209f5761209e611f92565b5b81516120af848260208601612048565b91505092915050565b6000602082840312156120ce576120cd611647565b5b600082015167ffffffffffffffff8111156120ec576120eb61164c565b5b6120f88482850161208a565b91505092915050565b7f41756374696f6e2068617320616c726561647920656e64656400000000000000600082015250565b600061213760198361191d565b915061214282612101565b602082019050919050565b600060208201905081810360008301526121668161212a565b9050919050565b7f41756374696f6e20686173206e6f7420656e6465642079657400000000000000600082015250565b60006121a360198361191d565b91506121ae8261216d565b602082019050919050565b600060208201905081810360008301526121d281612196565b9050919050565b7f4f776e61626c653a206e6577206f776e657220697320746865207a65726f206160008201527f6464726573730000000000000000000000000000000000000000000000000000602082015250565b600061223560268361191d565b9150612240826121d9565b604082019050919050565b6000602082019050818103600083015261226481612228565b9050919050565b7f4f776e61626c653a2063616c6c6572206973206e6f7420746865206f776e6572600082015250565b60006122a160208361191d565b91506122ac8261226b565b602082019050919050565b600060208201905081810360008301526122d081612294565b905091905056fea2646970667358221220e73304a5128b7d8d7b7a4916535da5b2aaef599ea0e5235e486d4389321b2bdb64736f6c63430008160033",
  "linkReferences": {},
  "deployedLinkReferences": {}
}